:020000040800F2
:10000000E82C0020492A0008910200089302000809
:10001000970200089B0200089F02000800000000F1
:10002000000000000000000000000000A302000823
:10003000A502000800000000A7020008A9020008AD
:10004000632A0008632A0008632A0008632A00085C
:10005000632A0008632A00087F060008DD050008FF
:10006000632A0008632A0008632A0008632A00083C
:10007000632A0008632A0008632A0008632A00082C
:10008000632A0008632A0008632A0008632A00081C
:10009000632A0008632A0008632A0008632A00080C
:1000A000632A0008632A0008632A0008632A0008FC
:1000B000632A00089111000871130008632A0008E0
:1000C000632A0008632A0008632A0008632A0008DC
:1000D000632A00089B290008632A0008632A000895
:1000E00027060008632A0008632A000800F002F8C7
:1000F00000F03AF80AA090E8000C82448344AAF188
:100100000107DA4501D100F02FF8AFF2090EBAE885
:100110000F0013F0010F18BFFB1A43F0010318473B
:10012000405D0000605D0000103A24BF78C878C1CF
:10013000FAD8520724BF30C830C144BF04680C60ED
:10014000704700000023002400250026103A28BF35
:1001500078C1FBD8520728BF30C148BF0B60704739
:100160001FB51FBD10B510BD04F034FA1146FFF7DE
:10017000F7FF00F009F804F052FA03B4FFF7F2FFBA
:1001800003BC02F021FA000000F0FFF8482002F062
:10019000BFF902F013FA00F079F900F0DEF902F08D
:1001A00031FA00F04BFF02F01FF96421084600F01D
:1001B00079FF41F61F4147F22F5000F09FFF55E0B5
:1001C0002B480078012838D100212A4803F008FD87
:1001D0002948007823280AD1FA202849088000F00D
:1001E00079FD2749088000202649087017E0224839
:1001F0000078402809D1FA20204908801E4800F0E4
:10020000DBFD01201E49088009E01B4800782528F5
:1002100005D1FA2019490880174800F03EFE00F089
:1002200087FE0121134803F0DBFC0122114611482F
:1002300003F0F1FC00200E490870134800780128F3
:1002400004D100F0E9FE00200F4908700F48007843
:1002500001280BD10B480078012807D1372002F084
:100260008AFB00200949087006490870A8E70000C9
:100270005100002000040040202600202000002023
:1002800048000020400000204400002045000020DD
:10029000704700BFFEE700BFFEE700BFFEE700BFFC
:1002A000FEE7704770477047704700000CB50020AC
:1002B000019000906C48006840F480306A49086002
:1002C00000BF6948006800F4003000900198401CAD
:1002D0000190009818B90198B0F5A06FF1D162486B
:1002E000006800F4003010B10120009001E000200F
:1002F00000900098012843D15C48006840F010004D
:100300005A4908600846006820F003000860084663
:10031000006840F002000860534840685249486055
:100320000846406848600846406840F4806048607D
:100330000846406820F47C1048600846406840F455
:10034000E81048600846006840F08070086000BF10
:100350004548006800F000700028F9D04248406825
:1003600020F00300404948600846406840F0020021
:10037000486000BF3C48406800F00C000828F9D1F4
:100380000CBD10B5FFF792FF10BD10B536480068E0
:1003900040F001003449086008464068344908408C
:1003A0003149486008460068324908402E490860D3
:1003B0000846006820F4802008600846406820F461
:1003C000FE0048604FF41F008860FFF7DAFF4FF02F
:1003D00000602949086010BD10B5002100200022EE
:1003E000214B5B6803F00C0121B1042906D00829D8
:1003F00028D107E0214B224C236027E01F4B204CE3
:10040000236023E0184B5B6803F47010164B5B68A5
:1004100003F48032022303EB904022B9194B43438B
:10042000174C23600DE0104B5B6803F4003323B1DD
:10043000144B4343124C236003E0104B4343104CD6
:10044000236003E00D4B0E4C236000BF00BF064B42
:100450005B68C3F303130C4CE15C094B1B68CB4096
:10046000074C236010BD0000001002400020024035
:100470000000FFF8FFFFF6FE08ED00E000127A0032
:100480000000002000093D000400002008B5012103
:10049000242002F011FF0420ADF8000010208DF898
:1004A000030003208DF802006946044802F048FC6E
:1004B0000421024802F0F1FC08BD000000140140D4
:1004C00008B50121142002F0F7FE42F20200ADF857
:1004D000000048208DF803006946074802F030FC10
:1004E0000120ADF8000028208DF80300694603487C
:1004F00002F026FC08BD0000001001400008014089
:1005000008B506208DF8000000208DF801008DF858
:10051000020001208DF80300684602F0BAFA0720B5
:100520008DF8000000208DF8010001208DF80200F8
:100530008DF80300684602F0ACFA28208DF8000020
:1005400000208DF8010002208DF8020001208DF8B6
:100550000300684602F09DFA08BD1CB5FFF7B0FF26
:100560000121084602F0A8FE0121022002F0FEFC53
:100570000220009000208DF804000C208DF805006A
:1005800001208DF80600684602F0FAFA0D210220DB
:1005900002F0ECFC4FF40050009000208DF80400B5
:1005A0000C208DF8050001208DF80600684602F049
:1005B000E7FA0021084602F0D9FC01200090002053
:1005C0008DF8040008208DF8050001208DF8060044
:1005D000684602F0D5FAFFF793FF1CBD10B50A205C
:1005E00001F0B0FF02213A4802F03DFCB8B93948A9
:1005F000006808B9012000E000203649086001F0D9
:1006000025FFFA203449088000F092FC01221146AF
:10061000324803F000FB0121304803F0E1FA0220E8
:1006200002F025FB10BD10B50A2001F08BFF4FF43E
:100630000051274802F017FCE0B92648006808B9C5
:10064000012000E00020234908600421244801F033
:1006500028FFFA202049088000F06AFC0122114698
:100660001E4803F0D8FA01211C4803F0B9FA5A20B9
:100670001C4908704FF4005002F0F9FA10BD10B593
:100680000A2001F05FFF0121174802F0ECFB01286E
:1006900019D11048006808B9012000E000200D4978
:1006A000086002210E4801F0FCFEFA200A49088089
:1006B00000F03EFC01221146084803F0ACFA01218B
:1006C000064803F08DFA012002F0D1FA10BD0000B7
:1006D00000100140888122422000002000040040D8
:1006E00000200020150000200008014010B502463F
:1006F0000B46002100BF07E032F8110033F811402B
:10070000A04200D002E0491C0829F5DB00BFC8B2B6
:1007100010BDF0B505460C46134600204C2D78D18F
:100720005E2C16D1002110E000220AE0F74E06EB05
:10073000011636F8126003EB011727F81260561CF9
:10074000F2B2082AF2DB4E1CF1B20429ECDB0420E1
:10075000CCE1272C16D1002110E000220AE0EC4E5B
:1007600006EB011636F8126003EB011727F812604A
:10077000561CF2B2082AF2DB4E1CF1B20429ECDB63
:100780000420B3E1322C2CD1002110E000220AE039
:10079000DE4E06EB011636F8126003EB011727F860
:1007A0001260561CF2B2082AF2DB4E1CF1B2042988
:1007B000ECDB002111E000220BE0D44E06EB011629
:1007C00036F8127003EB0116403626F81270561CEC
:1007D000F2B2082AF1DB4E1CF1B20429EBDB08204F
:1007E00084E1002110E000220AE0CA4E06EB011667
:1007F00036F8126003EB011727F81260561CF2B2AC
:10080000082AF2DB4E1CF1B20629ECDB06206DE172
:10081000FFE7522D78D15E2C16D1002110E0002286
:100820000AE0BD4E06EB011636F8126003EB011725
:1008300027F81260561CF2B2082AF2DB4E1CF1B205
:100840000429ECDB042051E1272C16D1002110E013
:1008500000220AE0B14E06EB011636F8126003EBF7
:10086000011727F81260561CF2B2082AF2DB4E1C60
:10087000F1B20429ECDB042038E1322C2CD1002128
:1008800010E000220AE0A44E06EB011636F81260D2
:1008900003EB011727F81260561CF2B2082AF2DBAC
:1008A0004E1CF1B20429ECDB002111E000220BE028
:1008B000994E06EB011636F8127003EB011640361E
:1008C00026F81270561CF2B2082AF1DB4E1CF1B267
:1008D0000429EBDB082009E1002110E000220AE0F6
:1008E0008F4E06EB011636F8126003EB011727F85E
:1008F0001260561CF2B2082AF2DB4E1CF1B2062935
:10090000ECDB0620F2E0FFE7462D78D15E2C16D115
:10091000002110E000220AE0824E06EB011636F8B4
:10092000126003EB011727F81260561CF2B2082A76
:10093000F2DB4E1CF1B20429ECDB0420D6E0272CBC
:1009400016D1002110E000220AE0774E06EB0116D6
:1009500036F8126003EB011727F81260561CF2B24A
:10096000082AF2DB4E1CF1B20429ECDB0420BDE0C6
:10097000322C2CD1002110E000220AE0694E06EB57
:10098000011636F8126003EB011727F81260561CA7
:10099000F2B2082AF2DB4E1CF1B20429ECDB002192
:1009A00011E000220BE05F4E06EB011636F81270E4
:1009B00003EB0116403626F81270561CF2B2082AD4
:1009C000F1DB4E1CF1B20429EBDB08208EE00021A4
:1009D00010E000220AE0554E06EB011636F81260D0
:1009E00003EB011727F81260561CF2B2082AF2DB5B
:1009F0004E1CF1B20629ECDB062077E0FFE75E2C07
:100A000016D1002110E000220AE0494E06EB011643
:100A100036F8126003EB011727F81260561CF2B289
:100A2000082AF2DB4E1CF1B20429ECDB04205DE065
:100A3000272C16D1002110E000220AE03D4E06EBE3
:100A4000011636F8126003EB011727F81260561CE6
:100A5000F2B2082AF2DB4E1CF1B20429ECDB0420CE
:100A600044E0322C2CD1002110E000220AE0304E6C
:100A700006EB011636F8126003EB011727F8126037
:100A8000561CF2B2082AF2DB4E1CF1B20429ECDB50
:100A9000002111E000220BE0254E06EB011636F88E
:100AA000127003EB0116403626F81270561CF2B293
:100AB000082AF1DB4E1CF1B20429EBDB082015E01B
:100AC000002110E000220AE01B4E06EB011636F86A
:100AD000126003EB011727F81260561CF2B2082AC5
:100AE000F2DB4E1CF1B20629ECDB0620F0BD2DE94D
:100AF000F04F83460F4616469846DDF8249046454B
:100B000049D1002428E0002522E00000E021002057
:100B1000E022002060250020A0210020A02200204B
:100B2000C02500202022002020230020A024002017
:100B30006022002060230020002500200BEB041021
:100B400030F8150009EB041121F81500681CC5B236
:100B5000082DF3DB601CC4B2B442D4DB002518E0DE
:100B600007EB051202F1100107EB0510FFF7BEFDC0
:100B70008246002409E007EB041030F81A0009EB64
:100B8000041121F81A00601CC4B2B442F3DB681CE3
:100B9000C5B2022DE4DB042E02D1B8F1080F04D057
:100BA000082E61D1B8F1040F5ED100240FE00025BA
:100BB00009E00BEB041030F8150009EB041121F8E3
:100BC0001500681CC5B2082DF3DB601CC4B2042CF0
:100BD000EDDB002518E007EB051202F1100107EB31
:100BE0000510FFF783FD8246002409E007EB04109F
:100BF00030F81A0009EB041121F81A00601CC4B285
:100C0000042CF3DB681CC5B2022DE4DB042E17D1E3
:100C1000B8F1080F14D104240FE0002509E007EB18
:100C2000041030F8150009EB041121F81500681CB8
:100C3000C5B2082DF3DB601CC4B2082CEDDB13E059
:100C400004240FE0002509E00BEB041030F8150038
:100C500009EB041121F81500681CC5B2082DF3DB5F
:100C6000601CC4B2082CEDDB464502DD3046BDE811
:100C7000F08F4046FBE770B504460B46D9B211E051
:100C800000200BE0CD1A04EB051535F810509D4EF1
:100C900006EB011626F81050451CE8B20828F1DBD7
:100CA0004D1CE9B29142EBDB70BD02464C2A01D1EA
:100CB00052290BD0522A01D14C2907D0462A01D102
:100CC000422903D0422A03D1462901D1012000E064
:100CD000002070472DE9F043E1B001244FF00008F7
:100CE00000274FF000090125002607E0864830F86C
:100CF0001600844921F81600701CC6B2082EF5DBD8
:100D000051E0824BA21C995C1A46105DFFF7CDFFA3
:100D1000A8B37E49A01C095C7C4AE01C105C81429F
:100D20002ED01046015D601C105C814228D0134615
:100D3000621C995C1A46105D41AAFFF7EAFC07465F
:100D4000724BE21C995CA21C985C21AAFFF7E1FCA3
:100D5000814601A84B463A4621A9009041A8FFF7D9
:100D6000C6FE804605EB080082B2294601A8FFF7BF
:100D700082FF05EB080085B2201DC4B213E0FFE737
:100D8000624B621C995C1A46105D41AAFFF7C1FCD8
:100D90000746E81982B2294641A8FFF76CFFE81917
:100DA00085B2A01CC4B25948005D2128A9D1681E93
:100DB00080B261B0BDE8F0832DE9F04786B005460A
:100DC0000026B046B1463DE0A85D39280ADCA85DA2
:100DD000302807DBAA5D4046411C01F0FF0804A94A
:100DE0000A542DE0A85D25282AD100241AE004A980
:100DF000085D01F069FC8246A8F10101081B04F0BE
:100E0000F4FB02460B46CDE900010020404903F007
:100E100099FCCDE9020104F0BBFB0AFB007087B22C
:100E2000601CC4B24445E2DB364820F8197010302B
:100E300020F8197009F1010000F0FF090027B846F9
:100E4000701CC6B2A85D2128BED100241AE004A9F6
:100E5000085D01F039FC8246A8F10101081B04F08D
:100E6000C4FB02460B46CDE900010020284903F0EF
:100E700069FCCDE9020104F08BFB0AFB007087B22C
:100E8000601CC4B24445E2DB1E4820F819701030E3
:100E900020F8197006B0BDE8F08770B50446607898
:100EA00001F012FC0546082D28D2DFE805F02704E2
:100EB000090E13181D220421164801F0F2FA1EE053
:100EC0000121154801F0EDFA19E00421134801F061
:100ED000E8FA14E00121124801F0E3FA0FE00421DE
:100EE000104801F0DEFA0AE001210F4801F0D9FABA
:100EF00005E004210D4801F0D4FA00E000BF00BF76
:100F000070BD0000B0000020F01F0020202600204F
:100F100000002440002000205020002070200020ED
:100F2000C0200020E020002030210020502100209F
:100F300010B54F4800784F490988884251D10021A7
:100F40004D4802F04DFE002049490870401E4B49B3
:100F500008604B480078012801D14A4908704A4886
:100F6000007844282BD006DC412810D0422816D027
:100F7000432834D11BE0452829D05A282FD13120CD
:100F800001F0F9FC0121414802F02AFE28E032205C
:100F900001F0F1FC01213D4802F022FE20E0332067
:100FA00001F0E9FC0121394802F01AFE18E0342072
:100FB00001F0E1FC0121354802F012FE10E035207D
:100FC00001F0D9FC0121314802F00AFE08E0362088
:100FD00001F0D1FC01212D4802F002FE00E000BF2B
:100FE00019E023480078401C214908702348006814
:100FF000401C2249086000240BE025481C49097860
:1010000000EB011030F81400224921F81400601C94
:10101000C4B2082CF1DB10BD10B51F480088401C7D
:101020001D490880084600881C490988884204D167
:10103000002019490880FFF77BFF10BD08B501218A
:10104000042002F039F94FF4FF70ADF800001020D1
:101050008DF8030003208DF802006946104801F066
:101060006FFE4FF4FF710E4801F019FF08BD00003C
:101070001C00002048000020000400401800002050
:10108000450000204000002015000020000800401E
:10109000B00000203000002042000020200000208E
:1010A000000801407FB505460C460121022002F0F0
:1010B00010F9ADF80850ADF804400020ADF80A0072
:1010C000ADF8060001A9ED4802F02EFA0022012138
:1010D000EA4802F0A0FD1D208DF8000000208DF8E8
:1010E00001008DF8020001208DF80300684601F030
:1010F000D0FC0021E14802F073FD7FBD7FB50546BD
:101100000C460121042002F0E4F8ADF80850ADF8D7
:1011100004400020ADF80A00ADF8060001A9D84847
:1011200002F002FA01221146D54802F074FD1E2099
:101130008DF8000000208DF8010002208DF80200DB
:1011400001208DF80300684601F0A3FC0021CC4883
:1011500002F046FD7FBD3EB50446601E84B2ADF888
:1011600004404720ADF800006946C44802F0DCF9AD
:101170003EBD3EB50446601E84B2ADF8044041F663
:101180001F40ADF800006946BD4802F0CDF93EBDF4
:1011900010B50121B94802F0ECFF002873D00120FE
:1011A000B8490870B848007811286DD2DFE800F01F
:1011B000D4091120293942525B6D76868F9FA8B8D9
:1011C000C1000120B1490860B1490888FFF7C3FF99
:1011D000C3E00020AD490860AD49098840F6C4125B
:1011E000511A88B2FFF7B7FF0120A6490870B4E092
:1011F0000120A649091D0860A5494888FFF7ABFFF3
:10120000ABE00020A149091D0860A149498840F6CA
:10121000C412511A88B2FFF79EFF01209949087045
:101220009BE0012099490831086099498888FFF7B7
:1012300092FF92E00020954908310860944989881E
:1012400040F6C412511A88B2FFF785FF01208D497C
:10125000087082E001208D490C3108608C49C888F3
:10126000FFF779FF79E0002088490C310860884950
:10127000C98840F6C412511A88B2FFF76CFF0120EA
:101280008049087069E072E066E001207F49103112
:1012900008607F490889FFF75EFF5EE000207B4918
:1012A000103108607A49098940F6C412511A88B28F
:1012B000FFF751FF0120734908704EE00120734988
:1012C0001431086072494889FFF745FF45E0002066
:1012D0006E49143108606E49498940F6C412511AAA
:1012E00088B2FFF738FF01206649087035E0012019
:1012F00066491831086066498889FFF72CFF2CE0A1
:1013000000206249183108606149898940F6C41299
:10131000511A88B2FFF71FFF01205A4908701CE0DC
:1013200001205A491C3108605949C889FFF713FF49
:1013300013E0002055491C3108605549C98940F621
:10134000C412511A88B2FFF706FF01204D490870F8
:1013500000204D49087000E000BF00BF4A480078F7
:10136000401C494908700121444802F013FF10BD98
:1013700010B50121424802F0FCFE00287CD045480F
:101380000078442849D006DC412818D0422825D0CE
:10139000432865D132E045284FD05A2860D100213A
:1013A000374802F01DFC41203A49087001213A48B3
:1013B00001F077F84FF42F703849088051E0002190
:1013C0002F4802F00DFC42203249087004213448B5
:1013D00001F067F8FA203149088042E000212848EE
:1013E00002F0FEFB43202B49087001212D4801F03B
:1013F00058F84FF42F702949088032E00021204826
:1014000002F0EEFB4420234908700421264801F035
:1014100048F8FA202149088023E00021184802F00A
:10142000DFFB45201B4908700121204801F039F8F5
:101430004FF42F701949088013E00021104802F082
:10144000CFFB5120134908700421194801F029F8F5
:10145000FA201249088001201649087001E00BE0CB
:1014600000BF00BFFFF764FD0121044802F0B8FB94
:101470000121034802F08EFE10BD00000004004070
:101480000008004044000020460000208401214262
:1014900030000020150000205020002020000020F7
:1014A00070200020C0200020E020002030210020FB
:1014B0005021002045000020002007E0FE4931F8BF
:1014C0001010FE4A22F81010411CC8B20828F5DBA3
:1014D000FB494988F94A5181F949C988D1810020DD
:1014E00007E0F64931F81020103121F81020411C96
:1014F000C8B20828F5DBF3490988F04A1182F2499D
:101500008A88EE498A82002008E0EC49103131F8DF
:101510001020103121F81020411CC8B20828F4DB3B
:10152000EA494A88E5494A85E849CA88E349CA85BB
:10153000002008E0E149203131F81020103121F875
:101540001020411CC8B20828F4DBDD490A88DB49B9
:101550000A87DB498A88D9498A87002008E0D74969
:10156000303131F81020103121F81020411CC8B260
:101570000828F4DBD6490988D04AA2F84010D4499B
:101580008A88CE49A1F84420002008E0CB494031A8
:1015900031F81020103121F81020411CC8B2082861
:1015A000F4DBCA490A88C549A1F85820C7498A8886
:1015B000C249A1F85C207047002007E0BE4931F81D
:1015C0001010C44A22F81010411CC8B20828F5DBDC
:1015D000BB494988BF4A5181B949C988D181002096
:1015E00007E0BC4931F81020103121F81020411CCF
:1015F000C8B20828F5DBB4490988B64A1182B14956
:101600008A88B4498A82002008E0B249103131F852
:101610001020103121F81020411CC8B20828F4DB3A
:10162000AA494A88AB494A85A849CA88A949CA85AE
:10163000002008E0A749203131F81020103121F8AE
:101640001020411CC8B20828F4DB9D490A88A14932
:101650000A879B498A889F498A87002008E09D491C
:10166000303131F81020103121F81020411CC8B25F
:101670000828F4DB96490988964AA2F84010944954
:101680008A889449A1F84420002008E0914940311B
:1016900031F81020103121F81020411CC8B2082860
:1016A000F4DB8A490A888B49A1F8582087498A883F
:1016B0008849A1F85C207047002007E07E4931F896
:1016C0001010854A22F81010411CC8B20828F5DB1A
:1016D0007B490988804A1181794989889181002054
:1016E00007E07D4931F81020103121F81020411C0D
:1016F000C8B20828F5DB74494A8877494A8271499B
:10170000CA887549CA82002008E07349103131F84F
:101710001020103121F81020411CC8B20828F4DB39
:101720006A490A886C490A8568498A886A498A85AB
:10173000002008E06849203131F81020103121F8EC
:101740001020411CC8B20828F4DB5D494A88624970
:101750004A875B49CA886049CA87002008E05E4919
:10176000303131F81020103121F81020411CC8B25E
:101770000828F4DB56494A885749A1F842205449C1
:10178000CA885549A1F84620002008E05249403156
:1017900031F81020103121F81020411CC8B208285F
:1017A000F4DB4A494A884C49A1F85A204749CA887B
:1017B0004949A1F85E207047002007E03E4931F812
:1017C0001010464A22F81010411CC8B20828F5DB58
:1017D0003B490988414A1181394989889181002012
:1017E00007E03E4931F81020103121F81020411C4B
:1017F000C8B20828F5DB33494A8838494A82324959
:10180000CA883649CA82002008E03449103131F8CC
:101810001020103121F81020411CC8B20828F4DB38
:101820002A490A882D490A8528498A882B498A85A8
:10183000002008E02949203131F81020103121F82A
:101840001020411CC8B20828F4DB1D494A882349EE
:101850004A871B49CA882149CA87002008E01F49D6
:10186000303131F81020103121F81020411CC8B25D
:101870000828F4DB16494A881849A1F8422014497F
:10188000CA881649A1F84620002008E013494031D3
:1018900031F81020103121F81020411CC8B208285E
:1018A000F4DB0A494A880D49A1F85A200749CA8839
:1018B0000A49A1F85E207047F01F0020C0250020D3
:1018C000C85D0008A85D0008B05D0008C05D0008A4
:1018D000A05D000860250020A02400200025002035
:1018E000002007E0FA4931F81010FA4A22F81010E7
:1018F000411CC8B20828F5DBF7490988F54A118070
:10190000002007E0F34931F81020103121F81020B1
:10191000411CC8B20828F5DBF0490A88ED490A8362
:10192000002008E0EB49103131F81020103121F887
:101930001020411CC8B20828F4DBE9490988E54AAF
:101940001184002008E0E349203131F810201031E3
:1019500021F81020411CC8B20828F4DBE1490A88AC
:10196000DC490A877047002007E0D94931F8101098
:10197000DD4A22F81010411CC8B20828F5DBD64910
:101980008988D94A9180002007E0D74931F8102092
:10199000103121F81020411CC8B20828F5DBCF49CE
:1019A0008A88D1498A83002008E0CF49103131F874
:1019B0001020103121F81020411CC8B20828F4DB97
:1019C000C7498A88C8498A84002008E0C64920316E
:1019D00031F81020103121F81020411CC8B208281D
:1019E000F4DBC0498A88C0498A877047002007E035
:1019F000B74931F81010BD4A22F81010411CC8B286
:101A00000828F5DBB449C988B84AD180002007E02E
:101A1000B64931F81020103121F81020411CC8B20D
:101A20000828F5DBAD49CA88B049CA83002008E020
:101A3000AE49103131F81020103121F81020411C2E
:101A4000C8B20828F4DBA649CA88A849CA8400207D
:101A500008E0A649203131F81020103121F810207B
:101A6000411CC8B20828F4DB9E49CA889F49CA872E
:101A70007047002007E0964931F810109C4A22F880
:101A80001010411CC8B20828F5DB93494988984AD0
:101A90005180002007E0964931F81020103121F8DC
:101AA0001020411CC8B20828F5DB8C494A889149AE
:101AB0004A83002008E08E49103131F8102010319F
:101AC00021F81020411CC8B20828F4DB84494A8858
:101AD00087494A84002008E08549203131F81020E8
:101AE000103121F81020411CC8B20828F4DB7D49D0
:101AF0004A887F494A877047002007E0744931F8D7
:101B000010107D4A22F81010411CC8B20828F5DBDD
:101B10007A490988784A1180002007E0764931F82F
:101B20001020103121F81020411CC8B20828F5DB24
:101B30006A490A8870490A83002008E06E4910311A
:101B400031F81020103121F81020411CC8B20828AB
:101B5000F4DB63490988684A1184002008E066497B
:101B6000203131F81020103121F81020411CC8B26A
:101B70000828F4DB5B490A885F490A877047002020
:101B800007E0534931F810105D4A22F81010411C4B
:101B9000C8B20828F5DB59498988594A9180002044
:101BA00007E0574931F81020103121F81020411C6E
:101BB000C8B20828F5DB49498A8851498A83002040
:101BC00008E04F49103131F81020103121F8102071
:101BD000411CC8B20828F4DB41498A8848498A84F4
:101BE000002008E04649203131F81020103121F85A
:101BF0001020411CC8B20828F4DB3A498A884049C1
:101C00008A877047002007E0314931F810103D4ABB
:101C100022F81010411CC8B20828F5DB3749C988E2
:101C2000384AD180002007E0364931F810201031C1
:101C300021F81020411CC8B20828F5DB2749CA88C2
:101C40003049CA83002008E02E49103131F81020B5
:101C5000103121F81020411CC8B20828F4DB2049BB
:101C6000CA882849CA84002008E02649203131F872
:101C70001020103121F81020411CC8B20828F4DBD4
:101C80001849CA881F49CA877047002007E01049D1
:101C900031F810101C4A22F81010411CC8B2082854
:101CA000F5DB16494988184A5180002007E016499B
:101CB00031F81020103121F81020411CC8B208283A
:101CC000F5DB06494A8810494A83002026E00000D7
:101CD000F01F002060240020B85D0008C85D0008E7
:101CE000A05D0008C05D000820240020A023002083
:101CF000E0230020E021002060230020A85D0008F0
:101D000020230020A0220020E0220020F84931F802
:101D10001020103121F81020411CC8B20828F5DB32
:101D2000F4494A88F24910394A84002008E0F04911
:101D3000103131F81020103121F81020411CC8B2A8
:101D40000828F4DBEC494A88E94910394A8770478A
:101D5000002007E0E94931F81010E94A22F8101094
:101D6000411CC8B20828F5DBE6490988E44A11801D
:101D7000002007E0E24931F81020103121F810204E
:101D8000411CC8B20828F5DBDF490A88DC490A8310
:101D9000002008E0DA49103131F81020103121F824
:101DA0001020411CC8B20828F4DBD2490988D44A63
:101DB0001184002008E0D249203131F81020103180
:101DC00021F81020411CC8B20828F4DBCA490A884F
:101DD000CB490A877047002007E0C84931F8101046
:101DE000CA4A22F81010411CC8B20828F5DBC549C0
:101DF0008988C64A9180002007E0C44931F8102044
:101E0000103121F81020411CC8B20828F5DBBE496A
:101E10008A88BE498A83002008E0BC49103131F825
:101E20001020103121F81020411CC8B20828F4DB22
:101E3000B0498A88B5498A84002008E0B349203136
:101E400031F81020103121F81020411CC8B20828A8
:101E5000F4DBA9498A88AD498A877047002007E0EA
:101E6000A64931F81010AA4A22F81010411CC8B235
:101E70000828F5DBA349C988A54AD180002007E0DE
:101E8000A34931F81020103121F81020411CC8B2AC
:101E90000828F5DB9C49CA889D49CA83002008E0D0
:101EA0009B49103131F81020103121F81020411CCD
:101EB000C8B20828F4DB8F49CA889549CA84002033
:101EC00008E09349203131F81020103121F810201A
:101ED000411CC8B20828F4DB8749CA888C49CA87E4
:101EE0007047002007E0854931F81010894A22F830
:101EF0001010411CC8B20828F5DB82494988854A80
:101F00005180002007E0834931F81020103121F87A
:101F10001020411CC8B20828F5DB7B494A887D495E
:101F20004A83002008E07B49103131F8102010313D
:101F300021F81020411CC8B20828F4DB6D494A88FA
:101F400074494A84002008E07249203131F8102099
:101F5000103121F81020411CC8B20828F4DB664972
:101F60004A886C494A877047002007E06A4931F87F
:101F700010106A4A22F81010411CC8B20828F5DB7C
:101F8000002007E0654931F81020103121F81020B9
:101F9000411CC8B20828F5DB57494A885F494A8383
:101FA0005549CA885D49CA83002008E05B49103161
:101FB00031F81020103121F81020411CC8B2082837
:101FC000F4DB51490A8855490A854F498A885349A3
:101FD0008A85002008E05149203131F81020103165
:101FE00021F81020411CC8B20828F4DB41490988B7
:101FF0004A4A11863F498A8848498A86002008E073
:102000004649303131F81020103121F81020411CA0
:10201000C8B20828F4DB38490A884049A1F84820AA
:1020200035498A883D49A1F84C207047002008E0D6
:102030003B4931F81010384A103A22F81010411C70
:10204000C8B20828F4DB002008E03349103931F821
:102050001020103121F81020411CC8B20828F4DBF0
:10206000284909882C4A103A11822E498A882A491F
:1020700010398A827047002008E02B4931F810108F
:10208000274A403A22F81010411CC8B20828F4DB55
:10209000002008E02249403931F81020103121F8A1
:1020A0001020411CC8B20828F4DB13490A881C49D7
:1020B00040390A8310498A88194940398A830020A7
:1020C00008E01749303931F81020103121F810207C
:1020D000411CC8B20828F4DB0B494A881049403932
:1020E0004A850949CA880E494039CA85002025E039
:1020F000F0220020A05D0008C05D0008F01F002055
:1021000060220020B05D0008C85D00082022002089
:10211000A0210020E02100204021002050210020AB
:1021200020210020A85D0008D0200020EB4931F8D4
:102130001020103121F81020411CC8B20828F5DB0E
:10214000E7494A88E54920394A86E549CA88E3498A
:102150002039CA86002008E0E049103131F810200B
:10216000103121F81020411CC8B20828F4DBDD49E9
:102170000988DA4A203AA2F84010DB498A88D74910
:102180002039A1F844207047002007E0D74931F8F2
:102190001010D74A22F81010411CC8B20828F5DBED
:1021A000002007E0D24931F81020103121F810202A
:1021B000411CC8B20828F5DBCB494A88CC494A8281
:1021C000C849CA88CA49CA827047002008E0C9497C
:1021D00031F81010C54A403A22F81010411CC8B21C
:1021E0000828F4DB002008E0C049403931F810200D
:1021F000103121F81020411CC8B20828F4DBBE4978
:102200004A88BA4940394A83BB49CA88B7494039E4
:10221000CA83002008E0B549303931F81020103168
:1022200021F81020411CC8B20828F4DBB3490A8801
:10223000AE4940390A85B1498A88AC4940398A8516
:10224000002008E0A949203931F81020103121F888
:102250001020411CC8B20828F4DBA1490988A34A10
:10226000403A11869E498A88A04940398A860020D2
:1022700008E09E49103931F81020103121F8102063
:10228000411CC8B20828F4DB96494A88974940396E
:10229000A1F842209449CA8894494039A1F84620BF
:1022A0007047002008E0964931F81010914A103A22
:1022B00022F81010411CC8B20828F4DB002008E006
:1022C0008C49103931F81020103121F81020411CB0
:1022D000C8B20828F4DB84490988864A103A11827A
:1022E00080498A88834910398A827047002008E033
:1022F000844931F81010824A403A22F81010411CEB
:10230000C8B20828F4DB002008E07E4931F810202C
:102310007B49303921F81020411CC8B20828F4DB71
:1023200076494A88764940394A837449CA8874494B
:102330004039CA83002008E0724931F81020704902
:10234000203921F81020411CC8B20828F4DB0020F5
:1023500008E06B49203931F81020103121F81020A5
:10236000411CC8B20828F4DB64494A8864494039F2
:102370004A876249CA8862494039CA87002008E012
:102380005F49103931F81020103121F81020411C1C
:10239000C8B20828F4DB53490988594A403AA2F8E0
:1023A000401051498A8856494039A1F84420704765
:1023B000002007E04A4A32F81020524B23F8102040
:1023C000421CD0B20428F5DB0420002109E04A4A6F
:1023D00032F811204B4B23F81020421CD0B24A1C7B
:1023E000D1B20828F3DB704700B5FFF7E1FFFFF734
:1023F0007DFFFFF756FFFFF7E8FEFFF7C5FEFFF78B
:102400003AFEFFF713FEFFF7AFFDFFF76AFDFFF798
:1024100025FDFFF7E0FCFFF79BFCFFF736FCFFF71D
:10242000F1FBFFF7ACFBFFF767FBFFF722FBFFF7C2
:10243000DDFAFFF798FAFFF753FAFFF7BDF9FFF758
:102440003BF9FFF7B9F8FFF737F800BD002007E0C8
:102450002C4931F810102C4A22F81010411CC8B237
:102460000828F5DB002008E0264931F8102026492D
:10247000103121F81020411CC8B20428F4DB0020E0
:1024800009E01E4931F810301F491031021D21F8B2
:102490001230411CC8B20428F3DB01211B4A118011
:1024A000704730B502460B46184C2380002110E0DF
:1024B00000200AE002EB011434F81040124D05EB45
:1024C000011525F81040441CE0B20828F2DB4C1C32
:1024D000E1B20E4C2488A142EADD30BD002100208B
:1024E000A05D0008A85D0008B05D0008B0200020D5
:1024F000C020002060200020C05D0008C85D0008EA
:1025000040200020F01F0020B000002048000020E4
:1025100010B504466FF0040000F005FBE11704EB72
:102520005171C1F3C701234A11701046007800EBC6
:102530004001C1EBC0104FF6FF7101EAC0001E4917
:10254000088010BD01461C4A12884A434FF0E02320
:102550005A6100229A6101221A6100BF4FF0E02205
:10256000106900F001021AB100F48032002AF5D09F
:1025700000224FF0E0231A619A61704701460D4A2C
:1025800012784A434FF0E0235A6100229A610122F7
:102590001A6100BF4FF0E022106900F001021AB189
:1025A00000F48032002AF5D000224FF0E0231A61B7
:1025B0009A6170474A0000204C00002010B54FF48B
:1025C000A06000F061FA10BD014600BF704700BF77
:1025D000FE4A128802F04002002AF9D0C2B2FB4B38
:1025E0001B1D1A80704708B525208DF800000120BA
:1025F0008DF801008DF802008DF80300684600F0A8
:1026000048FA08BD00B585B0012144F2040000F08D
:1026100053FE4FF40070ADF8100018208DF8130031
:1026200003208DF8120004A9E94800F089FB4FF45B
:102630008060ADF8100004208DF8130004A9E44870
:1026400000F07EFB4FF4165000900020ADF804001F
:10265000ADF80600ADF808000C20ADF80A00002027
:10266000ADF80C006946D94801F0DBFD012240F2CB
:102670002551D64801F06DFE0121D44801F05DFEE0
:10268000FFF7B1FF05B000BD01460A291AD2DFE805
:1026900001F00507090B0D0F11131517302011E07C
:1026A00031200FE032200DE033200BE0342009E030
:1026B000352007E0362005E0372003E0382001E030
:1026C000392000BF00BF70470146A1F130020A2A3D
:1026D0001AD2DFE802F00507090B0D0F11131517C9
:1026E000002011E001200FE002200DE003200BE0AC
:1026F000042009E0052007E0062005E0072003E0AC
:10270000082001E0092000BF00BF70472DE9F04715
:102710000446642094FBF0F0C7B20A2094FBF0F06A
:102720000A2190FBF1F201FB120000F0FF080A20E1
:1027300094FBF0F100FB114000F0FF093846FFF771
:10274000C3FF05464046FFF7BFFF06464846FFF772
:10275000BBFF8246302D0AD029469C4801F05AFE24
:1027600000BF4021994801F0C3FE0128F9D1302D66
:1027700001D0012000E00020302E01D0012100E036
:102780000021084350B13146904801F043FE00BF9C
:1027900040218E4801F0ACFE0128F9D151468B480A
:1027A00001F038FE00BF4021884801F0A1FE012859
:1027B000F9D10D21854801F02DFE00BF402183484D
:1027C00001F096FE0128F9D10A21804801F022FE8D
:1027D00000BF40217D4801F08BFE0128F9D1402146
:1027E0007A4801F092FEBDE8F0872DE9F04F87B0FE
:1027F000044642F2107094FBF0F0C0B206904FF421
:102800007A7094FBF0F00A2190FBF1F201FB1200C8
:10281000C0B20590642094FBF0F090FBF1F201FB54
:102820001200C0B204900A2094FBF0F090FBF1F289
:1028300001FB1200C0B203900A2094FBF0F100FBF0
:102840001140C0B202900698FFF73EFF054605987A
:10285000FFF73AFF06460498FFF736FF074603984E
:10286000FFF732FF80460298FFF72EFF0190302DD0
:102870000CD04FF001092946544801F0CBFD00BFB0
:102880004021524801F034FE0128F9D1B9F1010F7D
:1028900001D1012000E00020302E01D0012100E014
:1028A0000021084360B14FF0010A3146474801F06A
:1028B000B1FD00BF4021454801F01AFE0128F9D1C1
:1028C000BAF1010F01D1012000E00020302F01D02A
:1028D000012100E00021084360B14FF0010B3946AF
:1028E0003A4801F097FD00BF4021384801F000FE52
:1028F0000128F9D1BBF1010F01D1012000E0002036
:10290000B8F1300F01D0012100E00021084350B19F
:1029100041462E4801F07EFD00BF40212B4801F0CA
:10292000E7FD0128F9D12948019901F073FD00BFA5
:102930004021264801F0DCFD0128F9D12020FFF7D5
:10294000E5FE4021214801F0E0FD07B0BDE8F08F31
:1029500010B504460BE014F8011B1C4801F05AFDA9
:1029600000BF4021194801F0C3FD0128F9D12078AA
:102970002128F0D110BD10B504462146134801F0BE
:1029800049FD00BF4021114801F0B2FD0128F9D1F5
:1029900040210E4801F0B9FD10BD10B540F225519F
:1029A0000A4801F0BBFD002844D00848001D0088FB
:1029B000C1B2084802780078401C064B18700648DF
:1029C000815418460078401E034907E00038014052
:1029D000000801405800002020260020085C212823
:1029E00007D108460078232803D1084640784528B7
:1029F00015D111480078401E1049085C212803D1E8
:102A00000846007840280AD00B480078401E0B4941
:102A1000085C21280ED10846007825280AD100201C
:102A20000549087001200649087040F22551054803
:102A300001F06BFD10BD0000580000202026002092
:102A400051000020003801400948804709480047EC
:102A5000FEE7FEE7FEE7FEE7FEE7FEE7FEE7FEE74E
:102A6000FEE7FEE704480549054A064B70470000AB
:102A70008B030008ED000008E8260020E82C002069
:102A8000E8280020E828002031490143314A11603C
:102A9000704770B5002100230F22C47804B32D4C79
:102AA000246804F4E064C4F5E064210AC1F104037D
:102AB000CA40447804FA03F18478144021430901A0
:102AC000254C0678A155047804F01F050124AC407C
:102AD00005786D11AD0005F1E025C5F8004109E06C
:102AE000047804F01F050124AC401C4D06787611D3
:102AF00045F8264070BD1A4A0A400243154B1B1F79
:102B00001A60704739B1134A121D12680243114B03
:102B10001B1D1A6006E00F4A121D126882430D4BFE
:102B20001B1D1A607047042808D14FF0E021096985
:102B300041F004014FF0E022116107E04FF0E02185
:102B4000096921F004014FF0E02211617047000093
:102B50000000FA050CED00E000E400E080E100E098
:102B600080FFFF1F002044490860091D0860091DFF
:102B70000860091D086041483F49143108607047EA
:102B800000213D498279002A3AD00A46126803683A
:102B90009A430B461A600A1D126803689A430B1D7C
:102BA0001A60027911440A6803681A430A60324ABB
:102BB0000832126803689A432F4B08331A601A1DB3
:102BC000126803689A432C4B0C331A604279102A1E
:102BD0000ED11A1F126803681A43274B08331A6074
:102BE0001A1D126803681A43234B0C331A600DE058
:102BF0002149427911440A6803681A430A6005E0D2
:102C0000027911440A6803689A430A6070470021F8
:102C1000016001710C2141710021817170471649D9
:102C2000103109680143144A10321160704701469F
:102C30000020114A143212680A400AB1012000E053
:102C4000002070470C49143108607047014600208D
:102C50000022094B1B6803EA0102074B14331B686F
:102C60000B4013B10AB1012000E000207047024977
:102C7000143108607047000000040140FFFF0F009E
:102C800010B50446CC48844208D10121042000F04C
:102C90002DFB0021042000F029FB46E0C7488442B8
:102CA00008D10121082000F021FB0021082000F0BC
:102CB0001DFB3AE0C248844208D10121102000F0F7
:102CC00015FB0021102000F011FB2EE0BD488442CE
:102CD00008D10121202000F009FB0021202000F074
:102CE00005FB22E0B848844208D10121402000F0D1
:102CF000FDFA0021402000F0F9FA16E0B3488442C2
:102D000008D10121802000F0F1FA0021802000F09C
:102D1000EDFA0AE0AE48844207D10121801500F0A7
:102D2000E5FA0021A01500F0E1FA10BD10B501216F
:102D3000084600F0DBFA0021012000F0D7FA10BDB0
:102D40002DE9F04102460025002600200023002442
:102D5000002791F803C00CF00F0591F803C00CF0A8
:102D6000100CBCF1000F03D091F802C04CEA05052D
:102D700091F800C0BCF1000F31D0146800202BE0A6
:102D80004FF0010C0CFA00F3B1F800C00CEA030696
:102D90009E4220D183004FF00F0C0CFA03F7BC4386
:102DA00005FA03FC4CEA040491F803C0BCF1280FB7
:102DB00006D14FF0010C0CFA00FCC2F814C00AE076
:102DC00091F803C0BCF1480F05D14FF0010C0CFA8B
:102DD00000FCC2F810C0401C0828D1D31460B1F820
:102DE00000C0BCF1FF0F34DD546800202EE000F17C
:102DF000080C4FF0010808FA0CF3B1F800C00CEA17
:102E000003069E4221D183004FF00F0C0CFA03F70A
:102E1000BC4305FA03FC4CEA040491F803C0BCF17E
:102E2000280F05D100F1080C08FA0CF8C2F814803C
:102E300091F803C0BCF1480F07D100F1080C4FF026
:102E4000010808FA0CF8C2F81080401C0828CED3FC
:102E50005460BDE8F0814FF6FF710180022181705E
:102E60000421C17070470246002093680B400BB1EB
:102E7000012000E0002070470146886880B270475A
:102E800002460020D3680B400BB1012000E0002077
:102E900070470146C86880B2704701617047416160
:102EA00070470AB1016100E041617047C16070473D
:102EB0004FF480320A438261816182618269826952
:102EC000704702460020434B18684FF68073184045
:102ED00040EA021008433F4B186070473E49C86102
:102EE0007047F0B50A46002300240021002500F0B9
:102EF0000046B6F1004F02D1364EF16901E0354E81
:102F00007168C0F3034583B200F44016B6F5401F64
:102F100008D121F070612F4E766826F070662D4F33
:102F20007E6012E000F48016B6F5801F06D10326FD
:102F300006FA05F4A14341F0706106E0460D360142
:102F400003FA06F6B14341F0706122B1460D360135
:102F500003FA06F6314300F00046B6F1004F02D105
:102F60001C4EF16101E01B4E7160F0BD30B50022D6
:102F70008B071C0F0F2303FA04F2164B08338C1037
:102F800053F824309343134C08348D1044F8253003
:102F900023468C1053F824308C07240F00FA04F4D5
:102FA00023430C4C08348D1044F8253030BD0A49B9
:102FB000DC3108607047000000080140000C01404F
:102FC000001001400014014000180140001C0140A5
:102FD000002001400000014000002042DF4800685E
:102FE00040F00100DD49086008464068DC490840BF
:102FF000DA49486008460068DA490840D74908605D
:103000000846006820F4802008600846406820F4E4
:10301000FE0048604FF41F0088607047CF49096880
:1030200021F48031CD4A11601146096821F48021D4
:103030001160B0F5803F03D0B0F5802F0ED106E0CF
:10304000C649096841F48031C44A116007E0C349A8
:10305000096841F4A021C14A116000E000BF00BF2F
:10306000704710B501460022002300204A11012AB2
:1030700002D1BA4C236806E0022A02D1B74C236A77
:1030800001E0B64C636A01F01F02012494401C4029
:103090000CB1012000E0002010BD38B500200090E8
:1030A0000024002500BF3120FFF7DBFF0546009814
:1030B000401C00900098B0F5A06F01D0002DF2D018
:1030C0003120FFF7CEFF08B1012400E000242046A4
:1030D00038BD01460020A14A106820F0F80040EAFF
:1030E000C10010607047A049086070470246002088
:1030F0009A4B586820F47C1042EA01031843974B1E
:103100005860704798490866704701460020934A06
:10311000506820F003000843506070478F484068B3
:1031200000F00C007047014600208C4A506820F0E7
:10313000F00008435060704701460020874A5068FD
:1031400020F4E06008435060704701460020834A45
:10315000506820F4605040EAC1005060704729B1C7
:103160007E4A527A02437D4B5A7204E07B4A527A7D
:1031700082437A4B5A7270477B49D8310860704756
:1031800001460020754A506820F4404008435060D2
:1031900070470021714A20321170704A82F8201065
:1031A000012802D004280AD104E001216B4A203210
:1031B000117005E00521694A2032117000E000BF5E
:1031C00000BF70476949086070476449096A014354
:1031D000624A11627047654944390860704730B5EA
:1031E00000210022002400235C4D6D6805F00C01D5
:1031F00021B1042905D0082923D105E05C4D0560E3
:1032000022E05B4D05601FE0544D6D6805F47012BF
:10321000524D6D6805F48034022505EB92421CB9CD
:10322000544D554305600BE04C4D6D6805F4003579
:103230001DB1504D5543056002E04D4D55430560AD
:1032400002E04B4D056000BF00BF444D6D6805F0C6
:10325000F0010909484D6B5C0568DD4045603F4D54
:103260006D6805F4E061090A434D6B5C4568DD401B
:1032700085603A4D6D6805F46051C90A3E4D6B5C3E
:103280004568DD40C560354D6D6805F44041890BEA
:103290003A4D6B5CC568B5FBF3F5056130BD29B1EE
:1032A0002E4A526902432D4B5A6104E02B4A52695F
:1032B00082432A4B5A61704729B1284A92690243D6
:1032C000264B9A6104E0254A92698243234B9A6116
:1032D000704729B1214AD2690243204BDA6104E0E8
:1032E0001E4AD26982431D4BDA61704729B11B4ADD
:1032F000D2680243194BDA6004E0184AD26882436C
:10330000164BDA60704729B1144A12690243134B15
:103310001A6104E0114A12698243104B1A61704726
:1033200012494039086070470F49C86470470B491B
:10333000C87170470948406A40F080700749486288
:10334000704701460020054A92680A400AB10120F0
:1033500000E0002070470149887270470010024069
:103360000000FFF8FFFFF6FE0000424280044242E8
:1033700000127A0000093D00590000206900002079
:1033800010B50446FE48844208D10121C014FFF75D
:10339000ADFF0021E014FFF7A9FFC4E0B4F1804FB6
:1033A00008D101210846FFF7AEFF00210120FFF7F9
:1033B000AAFFB8E0F348844208D101210220FFF7B8
:1033C000A2FF00210220FFF79EFFACE0EE488442FE
:1033D00008D101210420FFF796FF00210420FFF708
:1033E00092FFA0E0E948844208D101210820FFF7BC
:1033F0008AFF00210820FFF786FF94E0E44884421A
:1034000008D101211020FFF77EFF00211020FFF7D7
:103410007AFF88E0DF48844208D101212020FFF7AD
:1034200072FF00212020FFF76EFF7CE0DA48844223
:1034300008D101214014FFF759FF00216014FFF764
:1034400055FF70E0D548844209D10121C804FFF737
:103450004DFF00214FF40020FFF748FF63E0D04804
:10346000844209D101210805FFF740FF00214FF4F4
:103470008010FFF73BFF56E0CA48844209D1012182
:103480004805FFF733FF00214FF40010FFF72EFF30
:1034900049E0C548844208D101214020FFF733FFAD
:1034A00000214020FFF72FFF3DE0C048844208D1B3
:1034B00001218020FFF727FF00218020FFF723FF55
:1034C00031E0BB48844208D101218015FFF71BFF82
:1034D0000021A015FFF717FF25E0B648844209D167
:1034E00001210804FFF702FF00214FF48030FFF7AD
:1034F000FDFE18E0B048844209D101214804FFF7DD
:10350000F5FE00214FF40030FFF7F0FE0BE0AB4872
:10351000844208D101218804FFF7E8FE00214FF41E
:103520008020FFF7E3FE10BD00220288944B9842F2
:103530000ED0994B98420BD0B0F1804F08D0914BF0
:10354000984205D0904B984202D0904B984204D1BB
:103550004FF68F731A404B881A438D4B984207D011
:103560008C4B984204D04FF6FF431A40CB881A4345
:1035700002808B8883850B880385814B98420BD012
:10358000854B984208D08B4B984205D08A4B984285
:1035900002D08A4B984201D10B7A038601238382A1
:1035A000704770B5002400220023058C4FF6FE768C
:1035B00035400584028C8388048B4FF68F752C4030
:1035C000B51E2C400D882C43751E2A400D892A43B8
:1035D0004D882A436A4DA8420BD06F4DA84208D0AF
:1035E000744DA84205D0744DA84202D0734DA84234
:1035F00013D14FF6F7752A404D892A434FF6FB75D4
:103600002A408D882A434FF6FF652B404FF6FF5521
:103610002B408D892B43CD892B4383800483CD8818
:103620008586028470BD70B5002400220023058CBD
:103630004FF6EF7635400584028C8388048B48F67C
:10364000FF752C404FF6FF452C400D884FF6FF7656
:1036500006EA05252C434FF6DF752A400D8906EA58
:1036600005152A434D8806EA05152A43444DA8420C
:1036700002D0494DA8421DD14FF67F752A404D8991
:103680004FF6FF7606EA05152A434FF6BF752A4026
:103690008D8806EA05152A434FF6FF352B404FF279
:1036A000FF752B408D8906EA85052B43CD8906EAF7
:1036B00085052B4383800483CD880587028470BDF4
:1036C00070B5002400220023058C4FF6FF663540BC
:1036D0000584028C8388848B4FF68F752C404FF6BF
:1036E000FC752C400D882C434FF6FF552A400D8960
:1036F0004FF6FF7606EA05252A434D8806EA05259A
:103700002A431F4DA84202D0234DA8421DD14FF29B
:10371000FF752A404D894FF6FF7606EA05252A43B4
:103720004FF6FF352A408D8806EA05252A434EF6D6
:10373000FF752B404DF6FF752B408D8906EA051568
:103740002B43CD8906EA05152B4383808483CD88DE
:103750008587028470BD70B5002200230024058C8B
:103760004EF6FF7635400584038C8488828B48F6BC
:10377000FF752A404FF6FF452A400D8820E00000E3
:10378000002C01400004004000080040000C0040F4
:10379000001000400014004000340140004C014083
:1037A000005001400054014000180040001C00403F
:1037B000002000400040014000440140004801401A
:1037C0004FF6FF7606EA05252A434DF6FF752B4096
:1037D0000D8906EA05352B434D8806EA05352B434E
:1037E000FA4DA84202D0FA4DA84208D14BF6FF7517
:1037F0002C408D894FF6FF7606EA85152C43848090
:103800008283CD88A0F84050038470BD828B4FF234
:10381000FF331A408283828B4FF6FF7303EA012342
:103820001A4382837047F0B50C46154600220021EA
:103830000026078C4EF6FF7C07EA0C070784828B74
:10384000018C4FF6FF7707EA043640F6FF473A400F
:103850004FF6FF7707EA05273A434FF6FF7707EA67
:1038600003373A43D94FB8420ED0D94FB8420BD0A4
:10387000B0F1804F08D0D74FB84205D0D64FB842EC
:1038800002D0D64FB84206D14DF6FF77394046F404
:103890008057394305E047F6FF57394044F48057D5
:1038A000394382830184F0BD828B4FF6F3731A4053
:1038B0008283828B0A4382837047F0B50C4615469B
:1038C000002200210026078C4FF6FF6C07EA0C0748
:1038D0000784828B018C4FF6FF7707EA04264FF6A8
:1038E0000C773A404FF6FF7707EA03172F433A4326
:1038F000B64FB8420ED0B64FB8420BD0B0F1804FA1
:1039000008D0B44FB84205D0B34FB84202D0B34F3D
:10391000B84206D14FF6FF57394046F48077394315
:1039200005E04FF2FF57394044F4807739438283F2
:103930000184F0BD028B4FF2FF331A400283028BE9
:103940004FF6FF7303EA01231A4302837047F0B571
:103950000C461546002200210026078C4FF6EF7C0E
:1039600007EA0C070784028B018C4FF6FF7707EA02
:10397000041640F6FF473A404FF6FF7707EA033751
:103980003A434FF6FF7707EA05273A438F4FB8428D
:103990000ED08F4FB8420BD0B0F1804F08D08D4F72
:1039A000B84205D08C4FB84202D08C4FB84206D1F5
:1039B0004FF6DF77394046F01007394305E04FF600
:1039C0005F77394044F01007394302830184F0BD2A
:1039D000028B4FF6F3731A400283028B0A43028371
:1039E0007047F0B50C46154600220021068C4FF6B4
:1039F000FE773E400684028B018C4FF60C763240F7
:103A00007E1C06EA03162E433243704EB0420ED09F
:103A10006F4EB0420BD0B0F1804F08D06D4EB04227
:103A200005D06D4EB04202D06C4EB04206D14FF67A
:103A3000FD76314044F00106314305E04FF6F5765E
:103A4000314044F00106314302830184F0BD70B57A
:103A500005460C465D4885420ED05D4885420BD038
:103A6000B5F1804F08D05B48854205D05A48854261
:103A700002D05A48854200D100E000BF208850B9EA
:103A80002389A28861882846FFF7ABFFE188284692
:103A9000FFF79EFF25E0208804280AD12389A28809
:103AA00061882846FFF753FFE1882846FFF742FF69
:103AB00017E0208808280AD12389A288618828462F
:103AC000FFF7FBFEE1882846FFF7EEFE09E02389B9
:103AD000A28861882846FFF7A6FEE1882846FFF7FE
:103AE00095FE70BD2DE9F04105460C4600260127E4
:103AF000608808B9022600E00026A088012801D1CC
:103B0000022700E001272088A0B92389A2886188C4
:103B10002846FFF766FFE1882846FFF759FF23890B
:103B20003A4631462846FFF712FFE1882846FFF75C
:103B300001FF13E02389A28861882846FFF707FF69
:103B4000E1882846FFF7F6FE23893A4631462846A3
:103B5000FFF747FFE1882846FFF73AFFBDE8F0810D
:103B60000A884B881A438B881A43CB881A430B89DF
:103B70001A434B891A438B891A43A0F84420704793
:103B80004FF6FF71818000210180C1804180017268
:103B900070470021018041808180C1800181418185
:103BA0008181C18170470021018041800121818094
:103BB0000021C18001817047002101804180818006
:103BC000C18001814181818170470000002C01404A
:103BD000003401400004004000080040000C004098
:103BE00021B1028842F00102028004E002884FF60F
:103BF000FE731A400280704731B1B0F8442042F49D
:103C00000042A0F8442005E0B0F84420C2F30E02C0
:103C1000A0F8442070471AB183890B43838102E0E6
:103C200083898B43838170478182704741EA020315
:103C3000A0F8483070471AB183890B43838102E0B2
:103C400083898B438381704701894FF6F872114055
:103C5000018170470A46002101894FF68F73194090
:103C600011430181704730B504460D462946204670
:103C7000FFF7F0FF208940F00700208130BD2DE9DB
:103C8000F04104460D4616461F46602D06D13B46C0
:103C9000012231462046FFF75AFE05E03B4601224D
:103CA00031462046FFF79DFE29462046FFF7D2FF0A
:103CB000208940F007002081BDE8F08130B50C4636
:103CC00000210189C9B24FF6FF7505EA03251543A6
:103CD00025432943018130BD2DE9F04105460E46BB
:103CE00017469846002443463A4631462846FFF791
:103CF000E5FF2C894FF6F870044044F007044FF6B6
:103D00008F70044044F070042C81BDE8F081F0B560
:103D100004460D4616461F463B4632462946204677
:103D2000FFF7CCFF208940F480402081F0BD018561
:103D3000828270470A46002101884FF68F7319402E
:103D4000114301807047F0B50C4615461E46002110
:103D5000002200230189028B038C4FF6F87739404B
:103D600021434FF6FC473A4040F201173A434FF6E1
:103D7000DD773B404FF6FF7707EA06172F433B43BB
:103D8000018102830384F0BD0A460021018B4FF6B6
:103D90008F7319401143018370470A460021018B3C
:103DA00048F6FF7319404FF6FF7303EA02231943E5
:103DB000018370470A460021818B4FF68F731940AB
:103DC0001143818370470A460021818B48F6FF73B7
:103DD00019404FF6FF7303EA0223194381837047AA
:103DE00021B1028842F08002028004E002884FF68E
:103DF0007F731A400280704721B1828842F004022A
:103E0000828004E082884FF6FB731A4082807047FC
:103E100021B1828842F00802828004E082884FF655
:103E2000F7731A408280704721B1828842F0010204
:103E3000828004E082884FF6FE731A4082807047C9
:103E40000A460021018B4FF6F77319401143018395
:103E500070470A460021018B4FF2FF7319404FF65D
:103E6000FF7303EA02231943018370470A460021C6
:103E7000818B4FF6F77319401143818370470A46CF
:103E80000021818B4FF2FF7319404FF6FF7303EA55
:103E900002231943818370470A460021018B4FF6A4
:103EA000FB7319401143018370470A460021018BBF
:103EB0004FF6FF3319404FF6FF7303EA022319430D
:103EC000018370470A460021818B4FF6FB7319402E
:103ED0001143818370470A460021818B4FF6FF33DF
:103EE00019404FF6FF7303EA022319438183704799
:103EF0000A460021018B4FF67F731940114301835D
:103F000070470A460021018BC1F30E014FF6FF7383
:103F100003EA02231943018370470A460021818B7B
:103F20004FF67F7319401143818370470A46002181
:103F3000818BC1F30E014FF6FF7303EA022319438D
:103F4000818370470A460021018C4FF6FD731940AA
:103F50001143018470470A460021018C4FF6F77324
:103F600019401143018470470A460021018C4FF625
:103F7000DF7319404FF6FF7303EA021319430184FC
:103F800070470A460021018C4FF67F7319404FF6A7
:103F9000FF7303EA02131943018470470A460021A4
:103FA000018C4FF6FF5319404FF6FF7303EA0223CB
:103FB0001943018470470A460021018C4FF2FF73B8
:103FC00019404FF6FF7303EA022319430184704737
:103FD0000A460021018C4DF6FF7319404FF6FF731E
:103FE00003EA023319430184704730B500230124EA
:103FF0008C40A3B2048C9C430484048C02FA01F527
:10400000ADB22C43048430BD30B5002304248C4071
:10401000A3B2048C9C430484048C02FA01F5ADB273
:104020002C43048430BD70B503460020002418469C
:10403000183001258D40ACB21D8CA5431D8409B1FB
:10404000082909D100EB6100056825F070050560BD
:104050000568154305600EE00D1FC5F34E052844A5
:10406000056825F4E045056005684FF6FF7606EA29
:1040700002263543056070BD21B1028842F002027C
:10408000028004E002884FF6FD731A4002807047F8
:1040900021B1028842F00402028004E002884FF657
:1040A000FB731A400280704721B1828842F080027F
:1040B000828004E082884FF67F731A4082807047C6
:1040C00002884FF6F7731A40028002880A43028082
:1040D000704782884FF68F731A40828082880A4325
:1040E0008280704702894FF6F8731A400281028974
:1040F0000A430281704702894FF67F731A4002819A
:1041000002890A4302817047818470478185704724
:10411000818670470187704781877047A0F84010FB
:10412000704702884FF6FF431A40028002880A4314
:10413000028070470146888E70470146088F70479D
:104140000146888F70470146B1F84000704701462C
:10415000888C70470146088D704702460020138AFC
:104160000B400BB1012000E000207047CA430282DF
:10417000704730B50246002000230024158A05EA66
:104180000103958905EA010413B10CB1012000E097
:10419000002030BDCA4302827047000010B50446BB
:1041A000FB48844209D101218803FFF79FF80021D1
:1041B0004FF48040FFF79AF832E0F648844209D184
:1041C00001214804FFF79FF800214FF40030FFF76A
:1041D0009AF825E0F048844209D101218804FFF7CC
:1041E00092F800214FF48020FFF78DF818E0EB489B
:1041F000844209D10121C804FFF785F800214FF45A
:104200000020FFF780F80BE0E548844208D1012147
:104210000805FFF778F800214FF48010FFF773F8D6
:1042200010BD2DE9F04786B005460E460024A24693
:1042300000BFA1460027B08900B100BF2F462C8ADD
:104240004CF6FF700440F08804432C82AC894EF693
:10425000F3100440B088318908437189084304434E
:10426000AC81AC8A4FF6FF400440B0890443AC8275
:1042700001A8FEF7B4FFC648874202D1DDF810A0BE
:1042800001E0DDF80CA0A88900F4004040B10AEB81
:10429000CA0000EB0A1031684900B0FBF1F807E0F2
:1042A0000AEBCA0000EB0A1031688900B0FBF1F894
:1042B0006420B8FBF0F004012009642101FB10899F
:1042C000A88900F4004040B1322000EBC900B0FBE7
:1042D000F1F000F00700044308E0322000EB091081
:1042E0006421B0FBF1F000F00F0004432C8106B014
:1042F000BDE8F0874FF41651016000218180C18034
:1043000001810C21418100218181704710B5024655
:104310000020108A4FF2FF0318400B884C8823437B
:104320008C882343CC8823431843108210BD00217E
:10433000018041808180C180704721B1828942F42F
:104340000052828104E082894DF6FF731A40828117
:104350007047F0B50346002400260025002040F6F3
:104360006A17B94200D100BF1846C1F3421401F0E8
:104370001F06012707FA06F5012C01D10C3004E0D5
:10438000022C01D1103000E014301AB107682F431D
:10439000076002E00768AF430760F0BD1AB1838A87
:1043A0000B43838202E0838A8B4383827047028AB5
:1043B0004FF6F0731A400282028A0A430282704763
:1043C00082894FF2FF731A40828182890A43828177
:1043D000704721B1828942F00202828104E0828921
:1043E0004FF6FD731A4082817047028A4FF6DF73E1
:1043F0001A400282028A0A430282704721B1028A6D
:1044000042F48042028204E0028A4BF6FF731A40B3
:1044100002827047C1F30802828070470146888893
:10442000C0F308007047818941F001018181704724
:10443000028BD2B20283028B42EA012202837047CE
:10444000028B02F47F420283028B0A43028370478D
:1044500021B1828A42F02002828204E0828A4FF6F1
:10446000DF731A408282704721B1828A42F01002C3
:10447000828204E0828A4FF6EF731A40828270478C
:1044800021B1828A42F00802828204E0828A4FF6D9
:10449000F7731A408282704721B1828942F4004248
:1044A000828103E08289C2F30E028281704721B1CA
:1044B000828A42F40062828204E0828A4FF2FF73B1
:1044C0001A4082827047828A4FF6FB731A408282BA
:1044D000828A0A438282704721B1828A42F00202B4
:1044E000828204E0828A4FF6FD731A40828270470E
:1044F00002460020B1F5007F00D100BF13880B40B9
:104500000BB1012000E00020704701F40072B2F509
:10451000007F00D100BFCA430280704770B50246D9
:10452000002400230025002040F66A16B14200D185
:1045300000BFC1F3421501F01F03012606FA03F381
:10454000012D02D19689334006E0022D02D1168A50
:10455000334001E0968A33400C12012606FA04F437
:104560001688344013B10CB1012000E0002070BD6A
:1045700010B50022002340F66A14A14200D100BF0A
:104580000A1201249440A3B2DC43048010BD000051
:10459000003801400044004000480040004C00400A
:1045A000005000407047704770477047704710B523
:1045B00000F008F8006810BD10B5044600F002F8DD
:1045C000046010BD004870478426002000487047F2
:1045D000842600207546FFF7F9FFAE4605006946C0
:1045E000534620F00700854618B020B5FEF73AFA8A
:1045F000BDE820404FF000064FF000074FF00008E4
:104600004FF0000B21F00701AC46ACE8C009ACE864
:10461000C009ACE8C009ACE8C0098D46704710B5C8
:104620000446AFF300802046BDE81040FBF7A5BD6F
:10463000490050EAC12018BF04204A0D18BF40F0BD
:10464000010040F2FF72B2EB515F08BF40F0020080
:10465000012808BF052070472DE9F0414F1E00EBEF
:10466000C7010446D1E9000115461E4637F006028F
:104670000DD02A46334601F00BF87F1E04EBC7032A
:10468000D3E9002300F070FD37F00602F1D1022FCC
:1046900025D0042F13D0062F18BFBDE8F0812A467D
:1046A000334600F0F5FFD4E90A2300F05DFD2A4609
:1046B000334600F0EDFFD4E9082300F055FD2A460B
:1046C000334600F0E5FFD4E9062300F04DFD2A460D
:1046D000334600F0DDFFD4E9042300F045FD2A460F
:1046E000334600F0D5FFD4E9022300F03DFD2A4611
:1046F000334600F0CDFFD4E90023BDE8F04100F0DF
:1047000033BD0000002213461046014900F0E8BD09
:104710000000F03F00F028BD00221346104611466D
:1047200000F0DEBD40F2013200204FF0E04101F028
:10473000F1BA0000024A0020110701F0EBBA0000B4
:1047400001FDFFFF2DE9F04D1D460C4698B01746C0
:1047500021F0004123F00043002814BF4FF0010C6A
:104760004FF0000C0CEB440CFE4A0CEB02064FEA37
:10477000620C66452BD33E0018BF012606EB4506AA
:104780001644F94A964222D3F84A53EA070C02D05B
:10479000944205D148B918B000201146BDE8F08D0B
:1047A000002808BF4FF0000C01D04FF0010C0CEBBB
:1047B000440212F5001F0AD8002F14BF4FF0010C5D
:1047C0004FF0000C0CEB450212F5001F07D918B092
:1047D0003A462B462146BDE8F04DFFF79BBF00222D
:1047E000DFF88CA3002CB8BF534526DADFF884C36A
:1047F0006345A8BF022220DADFF870C39C451CDCA9
:10480000DFF874C30CEB235CBCF1140F08DDCCF1B2
:10481000340627FA06FC0CFA06F6BE420DD108E073
:104820005FB9CCF1140623FA06FC0CFA06F69E4298
:1048300003D10CF00102C2F1020251EA000C19D1BD
:10484000002D17DA002C18BF022A01D0012A07D048
:104850000220FFF7B1FE18B0BDE8F04DFFF752BFE0
:104860000220FFF7A9FEFFF74DFF18B081F00041CD
:10487000BDE8F08DB7F1000C6CD1534525D104F1A2
:10488000804212F5801201BF00280020B74918B0FD
:1048900008BFBDE8F08DB548884207DC002DA1BFF8
:1048A0006046294618B0BDE8F08D07E0281E05DAFD
:1048B00080F0004118B06046BDE8F08DAF49794402
:1048C000D1E9000118B0BDE8F08DDFF8A0C2634562
:1048D00025D1002D1FDA19B1514512D1D8B909E0FF
:1048E000002840F0EC82A24A214618B062F31E0173
:1048F000BDE8F08D0020214618B060F31E01BDE830
:10490000F08D08DA18B02346BDE8F04D02460020CD
:10491000614600F0E5BC18B02146BDE8F08D514578
:1049200018DAB5F1804F0DD0A5F1005CBCF1FF5C49
:1049300010D1B4F1000C0DDB18B06146BDE8F04DAC
:1049400000F0ECBB234618B00246BDE8F04D194616
:1049500000F09EBE060024F0004C3BD1D9B1514579
:1049600033D1002C06DD002DA1BF0020514618B028
:10497000BDE8F08D002C01DD002D1BDB002C13DACF
:10498000002D11DB012A4FF0000014BF78497C494B
:1049900018B0BDE8F08D022A18BF002C0AD0012AF9
:1049A00008D1002C06DA0AE0002CB8BF002D11DA7D
:1049B000012A04D0002018B00146BDE8F08D18B0DF
:1049C00000204FF00041BDE8F08DA1F14050B0F162
:1049D0007F601AD0012000EBE47050EA020421D07D
:1049E000624C521E4FF0000B104304BF4FF0000BFF
:1049F000644C654883427CDD644A654893421FDD10
:104A0000884217DB002D25DB37E0002C00DA4AB1A5
:104A1000022A0CBF01204FF0FF3018B0BDE8F04D66
:104A200000F0E3BD0120FFF7C7FD18B0BDE8F04D71
:104A3000FFF772BE4D4A8A4202DC002D0ADC1CE000
:104A4000814202DA002D18DA04E0484B994220DD59
:104A5000002D12DD0220FFF7AFFDFFF763FE0546D4
:104A60000E46002253465846214600F011FE18B06B
:104A700066F31E012846BDE8F08D0220FFF79CFD7D
:104A8000FFF758FE0A46214618B062F31E01BDE842
:104A9000F08D00223046614601F020F880460E4637
:104AA0006FF0010201F036F94FF05532394B00F04A
:104AB00023FF4246334600F0EBFD0022364B00F068
:104AC0001BFF82464246334604911046194600F0C9
:104AD000DFFD5246049B00F0DBFD8A4600904FF05C
:104AE000C0422E4B4046314600F0D2FD2C4A2B4BA3
:104AF00000E027E0CDE906015146009800F0C8FD2E
:104B000082460191274A284B4046314600F0C0FDBD
:104B10005246019B00F0E2FF82460B460246059199
:104B2000DDE9060100F020FBDDE9062300268846CA
:104B3000304600F0D3FF5246059B00F0DDFE0246F2
:104B400000F07EB90020B1F5801F07DA352230462B
:104B5000614601F0DFF806466FF0340000EB2150AB
:104B600024E00000FFFF1F00FFFF0F000000F03FE8
:104B70000000F07F0000404301FCFFFF961500009D
:104B80000000F0FF0000F0BF0000E0410000F04333
:104B9000FFFFEF3F5555D53F0000E03F4715F73F7A
:104BA000FE822B6544DF5DF80BAE543EA0F2FF3071
:104BB0000190C1F3130040F07F6141F04051029138
:104BC000FE498842D8BF002004DDFD498142C8BFAC
:104BD000012001DD0D9008E000200D900198401C9F
:104BE00001900298A0F5801002900299F54878444F
:104BF0000B910D9900EBC100D0E900230F933046D3
:104C00000A920B9900F06AFFCDE90601DDE90A215D
:104C100030460F9B00F0A8FA02460B460020EA49F6
:104C200000F05EFB059102460B460090DDE90601AF
:104C300000F02EFD1490E5488A464FF000087844B5
:104C40000299006812904FF0005040EA61010D98FF
:104C50000F9B01EB804000F5002109910A9A129800
:104C600000F03CFF32460B9B00F046FE42465346A6
:104C700000F00EFD0646029140465146099B129AED
:104C800000F006FDDDE9062300F036FE3246029B09
:104C900000F024FF059B009A00F0FAFC0091149AA2
:104CA000049053461046194600F0F2FC06460246B0
:104CB000C7480B46029106217844FFF7CDFCCDE9A9
:104CC0000510029B32461046194600F0E1FCDDE972
:104CD000053200F0DDFC0591064653464046194674
:104CE000149A00F041FA009B049A00F0D1FC32467D
:104CF000059B00F039FACDE90510424653461046AF
:104D0000194600F0C5FC0022B24B02910A9000F057
:104D10002BFADDE9053200F027FA0E464246AD4B8C
:104D2000404600F0DBFE029B0A9A00F0D7FEDDE968
:104D3000053200F0E1FD424602910A9033461046EA
:104D4000514600F0A5FCCDE906015346149A02999C
:104D50000A9800F09DFC8A4602903346424600992C
:104D6000049800F095FC5346029A00F0FDF9824643
:104D70000B4602460591DDE9060100F0F5F9DDE993
:104D8000062300208846064600F0A8FE5246059BF2
:104D900000F0B2FD824609914FF060428E4B3046E2
:104DA000414600F075FC049006918C4A8A4B5046AF
:104DB000099900F06DFC82460291894A894B304680
:104DC000414600F065FC5246029B00F0CDF9864B4F
:104DD0007B440D9A03EBC203D3E9002300F0C4F92E
:104DE0000E900791019800F000FC0591DDE9061393
:104DF00082460E9A049800F0B7F97C4A7A440D9BDB
:104E000002EBC303D3E900230093029200F0ACF954
:104E10005246059B00F0A8F90026884652463046C7
:104E2000059B00F05BFE009B029A00F057FE069B7C
:104E3000049A00F053FE079B0E9A00F05DFD0246B7
:104E400000200B4602903846294600F021FC82469D
:104E500001912B4638461946029A00F03FFE324631
:104E6000434600F015FC5246019B00F07DF90746D1
:104E70008A46324643462946029800F009FC054618
:104E80000E463A46534600F06FF9594A8846914219
:104E900021DBA8EB020353EA000210D12A46334675
:104EA00000F01CFECDE90401524A534B38465146EE
:104EB00000F05AF9DDE9042300F0E8FC21D20220D9
:104EC000FFF77AFBFFF72EFC0A46214618B062F383
:104ED0001E01BDE8F08D494B28F000429A4210D3E4
:104EE000474A08EB020353EA00027FF4C6AD2A46A4
:104EF000334600F0F3FD3A46534600F0C7FC7FF618
:104F0000BCAD0022019228F000403E493E4A01EB30
:104F10002051824223DA481C4FF4801121FA00F01C
:104F200040443A4AC0F30A517A44394BA1F2FF3166
:104F3000CB4020EA0303C0F3130040F48010C1F11A
:104F40001401C84012680190B8F1000FBCBF404284
:104F500001902846314600F0C1FD05460E462A461E
:104F600033463846514600F0FFF84FF000084246FD
:104F7000284B4046059100F08BFBCDE90601264AFF
:104F8000264B4046059900F083FB009102902A468B
:104F900033464046059900F0A1FD3A46534600F0DD
:104FA000ABFC1F4A1F4B00F073FB009B029A00F002
:104FB000DBF80746884602460B4635E08E9803002C
:104FC0007AB60B00DE1100000000F03F1612000060
:104FD000441100000000084009C7EE3FFD033ADC21
:104FE000F5015B14E02F3EBE1C100000E00F000036
:104FF00000009040FE822B654715973C00CC904006
:1050000000346F3F01FCFFFF0000E03F2C0F000069
:10501000FFFF0F00432EE63F396CA80C615C20BEF9
:10502000EF39FAFE422EE63FDDE9060100F09CF87A
:10503000DDE9062305460E4600F050FD3A4643469C
:1050400000F05AFC0F462A46334600901046194697
:1050500000F01EFB824602462E4888460B4605217C
:105060007844FFF7F9FA5246434600F011FB2A460E
:10507000334600F041FC80468A463B46284631468E
:10508000009A00F005FB3B46009A00F06DF806918F
:10509000009000224FF080434046514600F01EFD34
:1050A0000F460C90424653462846314600F0F0FA2F
:1050B0003B460C9A00F014F9069B009A00F00EFD96
:1050C0002A46334600F00AFD0022134B00F014FC80
:1050D000054601980E4601EB00510815002810DC2A
:1050E00028463146019A00F015FEFFF7A1FA042880
:1050F00008BFFFF71FFB28463146019A00F00AFE61
:1051000005460B4618B02A4658462146BDE8F04DE4
:1051100000F0BEBACC0D00000000F03F2DE9F041D8
:1051200006460F4600F0F4FB041E0D4618BF012092
:10513000284320F00040C0F17F6000F1E040C00F44
:105140000ED0301C18BF0120384320F00040C0F1C1
:105150007F6000F1E040C00F04BF0120FFF72CFA90
:1051600020462946BDE8F08110B591EA030F48BFFB
:1051700083F0004300F1BA84841A71EB030C05D26A
:10518000121943EB0C03001B61EB0C01DFF824E167
:105190004FEA1154A4EB135C1EEA430F18BF9EEABA
:1051A000445F73D023EA0E03DCF1200E21EA0451A0
:1051B00043F4801332D322FA0CFE10EB0E0023FAD4
:1051C0000CFE41EB0E01CCF1200E03FA0EFE10EBAB
:1051D0000E0051F10001B1F5801FCCF1200E32D24A
:1051E00001EB045112FA0EF2BDE8104058BF7047AF
:1051F000401C38BF5FEA420218BF7047002814BF46
:1052000020F0010041F100014FEA410313F5001FB6
:1052100038BF7047A1F1C04100F032BB012A43EB17
:105220000302ACF1200CDCF11F0E32BF4FF0000E78
:1052300023FA0CF310EB030041EB0451B4EB115FC4
:10524000D0D0A1EB045101F5801149085FEA30008C
:1052500001EB04510ED350F1000038BF12FA0EFEDC
:1052600008D1BDE81040C9E7401C38BF5FEA4202E0
:10527000CAD1C3E7BDE810404FEA410313F5001F50
:1052800038BF7047A1F1C04100F0FABA9EEA445F0E
:1052900008D011EA5E0FBDE8104004BF01F00041E4
:1052A00000207047BDE8104070B500F09BFA00BFC9
:1052B00064FBBE3E0000E0FF02494FF0000000F03A
:1052C000F7BC00BF0000F87F491058BFC1F1404152
:1052D0005B1058BFC3F140438B42EFF3008070472F
:1052E0002DE9C04130B4DFF8A0C23CEA111418BF68
:1052F0003CEA131400F0EC8081EA03051CEA111467
:1053000044EAD57418BF1CEA131500F0C780A4EB5B
:1053100005044FF0004545EAC12145EAC32341EAAF
:10532000505143EA525304F17F74994204F500341A
:105330004FEAC0204FEAC22208BF904200F09C8092
:105340004FEA13650FF24016765D4FEA134506FBF0
:1053500005F7C7F1807706FB07F74FEAD737A7FBBA
:1053600003687642C8F58038A7FB06CE38BFA8F19F
:10537000010807FB08E64FF0000EA6FB028CE6FBD7
:1053800003CEDCF1000CCEF1004E38BFAEF1010EC1
:10539000A6FB0C584FF000074FF00005E6FB0E8708
:1053A000A1FB08C6A0FB07CE16EB0E0645F10005D3
:1053B000E1FB076515F1E04E7EBFA4F580345FEA9E
:1053C00046066D4116F1800745F100054FEA1727A3
:1053D0004FEA066647EA0567A6F1DE46B6F1805F4A
:1053E0004FEA15251FD9384624F0010C05EBC4718E
:1053F000BCF1FE6F01EB0C1102D8F0BCBDE80081DE
:1054000024425CBF01F5801E9EEAC47F02D4F0BC3A
:10541000BDE80081244238D4F0BCA1F1C041BDE810
:10542000004100F02DBA4FEAD22242EA43524FEA3D
:10543000D323A7FB02864FEAD02040EA415007FB66
:1054400003661EEA0E0F4FEAD12105FB026658BF24
:10545000A6EB0056B6EB00564FEA520E4EEAC37E5C
:1054600018EB0E0E56EB530EBDD518EB02085E413D
:105470007F1C55F10005B6E74FF480154FF000078B
:105480004FF000064FF00008ADE7F0BC4FF0000011
:1054900001F1C04101F00041BDE8008111EA0C1F9B
:1054A0000CEA131500D00CE013EA0C1F00F0258065
:1054B0004FF00000F0BC81EA030101F00041BDE8BB
:1054C0000081F0BCBDE8004181EA030100F0D8B9D9
:1054D000F0BCBDE8004170B500F084F9097EFC3EE7
:1054E00000F007B881EA03014FF0000001F000412D
:1054F000704781EA030100F0C3B9F0BCBDE8004188
:105500004FF0000021497047FFFDFBF9F7F5F4F279
:10551000F0EEEDEBE9E8E6E4E3E1E0DEDDDBDAD84E
:10552000D7D5D4D3D1D0CFCDCCCBCAC8C7C6C5C4AC
:10553000C2C1C0BFBEBDBCBBBAB9B8B7B6B5B4B3C3
:10554000B2B1B0AFAEADACABAAA9A8A8A7A6A5A4AE
:10555000A3A3A2A1A09F9F9E9D9C9C9B9A99999872
:105560009797969595949393929191908F8F8E8E15
:105570008D8C8C8B8B8A89898888878786858584A2
:1055800084838382828181800000FF070000F87F8E
:105590004FEA1153A3F58063D3F11E03A8BFD3F1E3
:1055A000200C08DB4FF0004242EAC12252EA50527E
:1055B00032FA03F0704709420BD4102BC4BF00200D
:1055C000704703F5787CBCF1FF3F05D04FF0FF300A
:1055D00070474FF00000704770B500F003F900BF4E
:1055E0004992248000207047F0E710F0004248BF45
:1055F0004042B0FA80F310FA03F10AD0C3F11D0360
:1056000003F580634FEA415002EB035202EBD121D4
:1056100070474FF00000704751EA030C17D41CF597
:10562000801F58BFBCF5801F00F10680994218BF4B
:10563000704708BF9042704707D711F5801F58BFC9
:1056400013F5801F19D499427047894270471CF5A1
:10565000801F08D5BCF5801FF7D58B4218BF704757
:1056600008BF824270474FF4001C1CEB410F38BF4B
:105670001CEB430F01D28B42704770B500F0B2F8BB
:10568000922449004FF000514FF08053FFF71CBEA9
:10569000DFF848C170B51CEA111E1EBF1CEA1315C5
:1056A0009EEA0C0F95EA0C0F00F06F8081EA03046C
:1056B00023EA4C134EEAD47E21EA4C1141F48011C6
:1056C00043F48013AE44A1FB024CA0FB0365AEF192
:1056D0007F7E361955EB0C05A1FB034C4CF1000302
:1056E000A0FB021C16EB0C06654153F100030942B6
:1056F00018BF46F0010613F4007F0BD14FEA0331C7
:105700004FEA0530340341EA155140EA16506FF074
:1057100003020AE04FEAC3214FEAC520F40241EA3E
:10572000555140EA56506FF0020202EB2E4201EB57
:10573000025585EACE710AD05FEA440C18BF24F006
:10574000004450F1000041F1000120EAD47040F221
:10575000FE7C624500D270BDA84214BF4FF0804469
:105760004FF04044002E08BF0024BEF1806FA8BF58
:10577000A1F1C041BDE8704080F282804FF000008E
:1057800001F1C04101F0004170479EEA0C0F0CEAA4
:10579000131518BF95EA0C0F06D04FF0000081EAF0
:1057A000030E0EF0004170BD00F01CF88900013EB0
:1057B00000F007B800F009B84FEA430C5FEA5C5C00
:1057C00008D081EA030100F05BB84FEA410C5FEAC0
:1057D0005C5CF6D14FF00000014970470000FF0704
:1057E0000000F87F0EF1020E2EF0030E5EF8046B3F
:1057F000364205D4012A43EB030515F5001F12D8E4
:10580000012841EB010C1CF5001F0CD80ED14FEA0A
:10581000D17C15F5001F0CEB4C0C0CF1020C08BFF1
:105820004CEBD37C04E04FF0080C01E04FEAD37C52
:105830000CEB4C0526FA05F606F00706B6F1040C4B
:1058400006D20EEB860CBDE870404CF0010C6047B0
:10585000DFE80CF0090B02024FF000414FF00000AE
:10586000A1F5002170BD19461046012851EB010435
:1058700018BFD4F5001484BF002001F0004170BDB2
:105880000808A0F500114FEA3101704753EA010CF6
:1058900017D41CF5801F58BFBCF5801F00F106808F
:1058A0008B4218BF704708BF8242704707D713F575
:1058B000801F58BF11F5801F19D48B4270479B423F
:1058C00070471CF5801F08D5BCF5801FF7D599429D
:1058D00018BF704708BF904270474FF4001C1CEB84
:1058E000430F38BF1CEB410F01D2994270470FB4F0
:1058F0000CBC03BCFFF7C1BE91EA030F10B581F0E9
:1059000000413FF539AC83F0004300F0EFB80000F0
:105910002DE9F04101F5801CBCF5001FC0F2C380E9
:105920004FEA115C21EA0C510CF1FD0C41F480119D
:105930005FEA5C0C0CF5C07C01D3400049413DA4FA
:10594000890241EA905187028E0E0A0CA45D04FB85
:1059500004F602FB06F6C6F14046A4FB0662F60D0D
:1059600046EA422606FB06F4A4FB01235242C3F199
:10597000404338BF5B1EA6FB02420024E6FB032423
:10598000D20B42EA4446A6FB0623A1FB02E2A3FB9C
:1059900007E4A4184FF0000252F10002E3FB0142B9
:1059A0006442C2F1404E38BFAEF1010EA6FB0423A3
:1059B0004FF00002E6FB0E32A2FB03464FF000045C
:1059C000B61954F10004E2FB0264A1FB06E6A4FB55
:1059D00007E816EB08064FF0000858F10008E4FB52
:1059E00001687642C8F1405838BFA8F10108A2FB0F
:1059F00006E4A3FB08E52D194FF0000454F1000460
:105A0000E2FB0854A1FB05E6A7FB04E818EB060837
:105A10004FF0000656F10006E1FB048618F1200560
:105A200056F10006A809A8F11B08B10908F03F08C3
:105A3000B8F10A0F40EA86601CD901EB0C51BDE8B1
:105A4000F08100BFFCF5EEE8E2DDD8D3CFCBC7C3D1
:105A5000C0BDB9B6B4B1AEACA9A7A5A3A19F9D9B8B
:105A60009A9896959392908F8D8C8B89888786854E
:105A700084838281A0FB006800FB01F208EB4208EE
:105A8000B8EB872807D5341858EB0104D5D5401C4E
:105A900051F10001D1E7341A78EB0104CDD4401E56
:105AA00071F10001C9E75FEA4C0C5FEA9C5C0DD123
:105AB00005D34FF0000001F00041BDE8F081BDE8E2
:105AC000F04170B5FFF78EFE6DDBFFBEBDE8F04123
:105AD0004FF00000004970470000F87F10B591EAD0
